:020000021000EC
:10E000007EC00000B3C0000097C0000095C00000B3
:10E0100093C0000091C000008FC000008DC00000C0
:10E020008BC0000089C0000087C0000085C00000D0
:10E0300083C0000081C000007FC000007DC00000E0
:10E040007BC0000079C0000077C0000075C00000F0
:10E0500073C0000071C000006FC000006DC0000000
:10E060006BC0000069C0000067C0000065C0000010
:10E0700063C0000061C000005FC000005DC0000020
:10E080005BC0000059C0000057C00000BBBEEC2DB3
:10E09000FD2DB7B6B0FCFDCF27BFE895B7B6B0FCF5
:10E0A000FDCF21E1B7B6B6FCF4CF0895040309040F
:10E0B0001C037700770077002E006600690073006C
:10E0C000630068006C002E00640065000E035500BC
:10E0D0005300420061007300700012011001FF0044
:10E0E0000008C016DC05020101020001090212004D
:10E0F000010100803209040000000000000011242A
:10E100001FBECFEFD0E4DEBFCDBF11E0A0E0B1E095
:10E11000E2E1F9EE01E00BBF02C007900D92A830DA
:10E12000B107D9F711E0A8E0B1E001C01D92A03419
:10E13000B107E1F793D1EBC363CFA82FB92F80E0EC
:10E1400090E041E050EA609530E009C02D918227CF
:10E150009795879510F084279527305EC8F36F5FF9
:10E16000A8F30895EADF8D939D930895CF93CFB7D9
:10E17000CF93DF93C3954C9BE9F74C9B0BC04C9B13
:10E1800009C04C9B07C04C9B05C04C9B03C04C9BDB
:10E1900001C089C06F93C0912301DD27C65DDE4FAA
:10E1A0002F9365E54C9B03C02F916F91E6CF0F93A2
:10E1B0001F934F9320E040E15F9309B1047104FB8A
:10E1C00027F93F9350E03BE039C0147140642F774A
:10E1D000012F5F5F1EC0406819B114712F77525034
:10E1E0001FC0406409B12F770471D1F15F5F00C097
:10E1F00023C0406219B12F77147191F15F5F00C0A5
:10E2000025C004711027515012F45D5F00001150B9
:10E2100027952C3F19B1C8F6147101270150279595
:10E220002C3FC8F64227499309B1047110274F7358
:10E23000115027952C3FA8F64695469519B11471B3
:10E2400079F00127015027952C3F98F66B5A60F31F
:10E25000315009B1B0F600C011E01CBB002717C057
:10E260003B503195C31BD04011E01CBB0881033CDF
:10E27000F9F00B34E9F0209121011981110F1213EB
:10E28000EDCF093651F10D3211F0013E39F700930F
:10E2900028013F915F914F911F910F912F916F91A5
:10E2A000CCB3C0FD67CFDF91CF91CFBFCF91189591
:10E2B00020912801222369F310912601112339F5B9
:10E2C00034303AF13093260120932201109123013A
:10E2D0003BE0311B309323011CC00091260101302B
:10E2E000B4F40AE53091000134FD14C0009300013C
:10E2F000C6E1D1E013C0052710E000C000000BB953
:10E300001AC0052710E0221F1DC010E021C04AE5F9
:10E3100002C032ED432FC4E1D0E032E01AB1146103
:10E320005C9A0BB11AB954E120E865E320FF052798
:10E330000BB9279517951C3FF0F66695B8F7B1F71E
:10E3400020FF05270BB9279517951C3FD0F6279579
:10E35000179517FF052700001C3F0BB9B0F6299150
:10E360003A9519F70B7E10912701110FC651D04035
:10E370000BB911F01093210111E01CBB00611AB11F
:10E380001B7E402F4B7E54E05A95F1F70BB91AB91A
:10E390004BB97FCFDC0113963C9113971496EC9107
:10E3A000149712962C911297203331F4E370F0E019
:10E3B000ED5FFE4F80810895932F8E2F283549F40D
:10E3C000332391F4E1E0F0E089E0809357008491F9
:10E3D00008952035E1F4332389F4E0E0F0E089E0AA
:10E3E0008093570084910895383009F030C0E3E0FD
:10E3F000F0E089E08093570084910895383039F532
:10E40000E2E0F0E089E080935700849108952032A3
:10E4100051F4A0E0B0E0880F991FAA1FBB1FABBF4B
:10E42000FC0187910895283269F4A0E0B0E0880FDC
:10E43000991FAA1FBB1F0196A11DB11DABBFFC01F7
:10E4400087910895203A09F44CC2203C11F080E0F5
:10E45000089515966C914DD280E008955598569A7E
:10E460005D9A5E9A14BE81E085BF82E085BF4D99BA
:10E4700027C284B7877F84BF88E10FB6F894809362
:10E480006000109260000FBE8091690082608093EE
:10E490006900E89A549A88E29AE0E0E9F1E031975D
:10E4A000F1F70197D1F75498789490912601935001
:10E4B00097FD52C180912301CCE0D0E0C81BD10967
:10E4C000C65DDE4F809122018D3209F0C2C09830C6
:10E4D00009F040C183EC809316018AE58093000126
:10E4E00010920C013881832F80762981882309F4CA
:10E4F00041C088E091E0909325018093240123306E
:10E5000031F4CE0147DF80930B0124E098C0253021
:10E5100079F12A3069F1822F84508630E0F48A81C3
:10E520009B8190930E0180930D01293039F48C81E9
:10E530009D819093100180930F0118C08E8180936C
:10E5400011018D818270809312012093130137FD98
:10E5500071C09FEF70C0223021F4809101018E7F45
:10E5600003C08091010181608093010120E067C0B8
:10E5700021E065C08A8110921F01222331F410929C
:10E5800020018FE191E022E050C0253019F4809302
:10E59000270148C02630B1F58B81813019F48AED0E
:10E5A00090EE04C0823041F48CEE90EE9093250101
:10E5B0008093240122E122C08330F9F48A818823E8
:10E5C00041F48CEA90EE909325018093240124E09D
:10E5D00015C0813041F480EB90EE9093250180933B
:10E5E00024012CE10BC0823041F48CEC90EE90932E
:10E5F0002501809324012EE001C020E080E4809377
:10E600000C011DC0283019F489E291E009C02930BD
:10E6100019F48093290106C02A3021F48FE191E09A
:10E6200021E003C08FE191E020E0909325018093E9
:10E63000240105C09E8180E880930C0107C08F8172
:10E64000882319F49E81921708F0922F909302016B
:10E6500081C080910C0187FF7DC080911101092F3D
:10E66000891708F4082F801B80931101FF24882349
:10E6700011F4FF24F39410E066C0809113018730F9
:10E6800070F080910D0190910E01019690930E0112
:10E6900080930D01019769912CD11F5F54C0409167
:10E6A0000D0150910E0160910F01709110014030E9
:10E6B00080EE580781E0680780E0780708F048C0DE
:10E6C0001E5FF8948991999121E00C01FA01609301
:10E6D0005B0020935700E89511247894DB01CA0170
:10E6E0000296A11DB11D80930D0190930E01A09380
:10E6F0000F01B0931001882341F0FF2021F1101782
:10E7000010F1809112018823F1F0F89483E0FA016E
:10E7100060935B0080935700E895789407B600FCFF
:10E72000FDCFF89485E0FA0160935B008093570079
:10E73000E895789407B600FCFDCFF89481E18093CA
:10E740005700E8957894101708F497CFFF2011F040
:10E7500010920201109226018091000184FF8CC06A
:10E76000809102018F3F09F487C0182F893008F08B
:10E7700018E0811B809302018091160198E8892797
:10E7800080931601112309F465C080910C0187FF65
:10E790003DC080911101811708F4182F811B8093CF
:10E7A000110100911301C7E1D1E028C0073030F01A
:10E7B00080910D0190910E0194D00BC080910D01BC
:10E7C00090910E01A0910F01B0911001ABBFFC011F
:10E7D00087918883219680910D0190910E01A091DF
:10E7E0000F01B09110010196A11DB11D80930D0183
:10E7F00090930E01A0930F01B0931001812F90E030
:10E80000895E9E4FC817D90789F622C0C09124019E
:10E81000D091250186FF11C0212F47E151E0CE01A3
:10E82000A0E0B0E0A160ABBFFC018791FA01819349
:10E83000AF012196215099F707C0912FE7E1F1E050
:10E84000899181939150E1F7D0932501C0932401E0
:10E85000193060F487E191E0612F84DC612F6C5FF7
:10E860006C3041F08FEF8093020104C08FEF8093F2
:10E8700002016EE16093000194E189B1847131F489
:10E880009150D9F710922701109221018091010136
:10E89000803130F04D9B0FC080910101805109C043
:10E8A0004D9909C080910101823028F080910101C9
:10E8B00082508093010180910101882309F0F5CDF8
:10E8C000F894549A1BB81BB81AB81AB81DBA10920B
:10E8D000690081E085BF15BEE0911401F09115013A
:10E8E0000995F999FECF92BD81BDF89A992780B517
:10E8F0000895262FF999FECF1FBA92BD81BD20BD84
:10E900000FB6F894FA9AF99A0FBE01960895F89402
:02E91000FFCF37
:08E912005AFEFF1E97050000EC
:040000031000E00009
:00000001FF
