:107000006BC000009EC0000082C0000080C0000075
:107010007EC000007CC000007AC0000078C0000084
:1070200076C0000074C0000072C0000070C0000094
:107030006EC000006CC000006AC0000068C00000A4
:1070400066C0000064C0000062C0000060C00000B4
:107050005EC000005CC000005AC0000058C00000C4
:1070600056C0000054C00000EC2DFD2DB7B6B0FC9A
:10707000FDCF27BFE895B7B6B0FCFDCF21E1B7B68D
:10708000B6FCF4CF0895040309041C0377007700CD
:1070900077002E00660069007300630068006C00D2
:1070A0002E00640065000E0355005300420061008D
:1070B0007300700012011001FF000008C016DC050B
:1070C00002010102000109021200010100803209DF
:1070D000040000000000000011241FBECFEFD8E024
:1070E000DEBFCDBF11E0A0E0B1E0E0E5F8E702C00F
:1070F00005900D92A830B107D9F711E0A8E0B1E0F2
:1071000001C01D92AE33B107E1F787D19FC378CF9D
:10711000A82FB92F80E090E041E050EA609530E080
:1071200009C02D9182279795879510F08427952780
:10713000305EC8F36F5FA8F30895EADF8D939D93E7
:107140000895CF93CFB7CF93DF93C3954F9BE9F7C4
:107150004F9B0BC04F9B09C04F9B07C04F9B05C067
:107160004F9B03C04F9B01C089C06F93C091210109
:10717000DD27C85DDE4F2F9365E54F9B03C02F9140
:107180006F91E6CF0F931F934F9320E040E15F9301
:1071900009B1047807FB27F93F9350E03BE039C081
:1071A000147840642F77012F5F5F1EC0406819B1CB
:1071B00014782F7752501FC0406409B12F7704789C
:1071C000D1F15F5F00C023C0406219B12F771478FE
:1071D00091F15F5F00C025C004781027515012F470
:1071E0005D5F0000115027952C3F19B1C8F6147847
:1071F0000127015027952C3FC8F64227499309B132
:10720000047810274F73115027952C3FA8F6469508
:10721000469519B1147879F00127015027952C3F34
:1072200098F66B5A60F3315009B1B0F600C011E026
:107230001CBB002717C03B503195C31BD04011E049
:107240001CBB0881033CF9F00B34E9F020911F01CD
:107250001981110F1213EDCF093651F10D3211F0D2
:10726000013E39F7009326013F915F914F911F91A5
:107270000F912F916F91CCB3C0FD67CFDF91CF916C
:10728000CFBFCF91189520912601222369F3109149
:107290002401112339F534303AF13093240120933D
:1072A0002001109121013BE0311B309321011CC0D2
:1072B000009124010130B4F40AE53091000134FD5D
:1072C00014C000930001C4E1D1E013C0052710E011
:1072D00000C000000BB91AC0052710E0221F1DC016
:1072E00010E021C04AE502C032ED432FC4E1D0E0F6
:1072F00032E01AB114685F9A0BB11AB954E820E869
:1073000065E320FF05270BB9279517951C3FF0F67D
:107310006695B8F7B1F720FF05270BB927951795A4
:107320001C3FD0F62795179517FF052700001C3F37
:107330000BB9B0F629913A9519F70B771091250101
:10734000110FC651D0400BB911F010931F0111E07D
:107350001CBB00681AB11B77402F4B7754E05A953D
:10736000F1F70BB91AB94BB97FCFDC0113962C9109
:10737000139714969C91149712968C9112978033C0
:1073800039F49370E92FF0E0ED5FFE4F80810895AE
:10739000F22FE92F883549F4222391F4E1E0F0E05F
:1073A00089E080935700849108958035D9F4222391
:1073B00081F4E0E0F0E089E0809357008491089543
:1073C000283019F5E3E0F0E089E0809357008491DC
:1073D00008952830D1F4E2E0F0E089E0809357008E
:1073E00084910895803221F4EE0FFF1F8491089557
:1073F000883229F4EE0FFF1F319684910895803A68
:1074000011F4CF010DC2803C11F080E00895CF014E
:1074100015966C910DD280E008951AB880E48BB96E
:1074200014BE81E085BF82E085BF4E99EBC184B771
:10743000877F84BF88E10FB6F89480936000109234
:1074400060000FBE80916900826080936900E89AB5
:10745000579A88E29AE0E0E9F1E03197F1F7019775
:10746000D1F75798789490912401935097FD31C1AA
:1074700080912101CCE0D0E0C81BD109C85DDE4F6E
:10748000809120018D3209F0BAC0983009F01FC1F7
:1074900083EC809314018AE58093000110920C0123
:1074A0003881832F807629818823D1F188E091E08B
:1074B0009093230180932201233031F4CE0155DFD4
:1074C00080930B0124E091C0253041F12A3031F145
:1074D000822F84508630A8F48A819B8190930E017C
:1074E00080930D012930C1F08E8180930F018D8131
:1074F0008270809310012093110137FD71C09FEFBE
:1075000070C0223021F4809101018E7F03C08091F0
:10751000010181608093010120E067C021E065C026
:107520008A8110921D01222331F410921E018DE1F7
:1075300091E022E050C0253019F48093250148C025
:107540002630B1F58B81813019F484EB90E704C0CB
:10755000823041F486EC90E79093230180932201DE
:1075600022E122C08330F9F48A81882341F486E83D
:1075700090E7909323018093220124E015C081308D
:1075800041F48AE890E790932301809322012CE153
:107590000BC0823041F486EA90E7909323018093F8
:1075A00022012EE001C020E080E480930C011DC088
:1075B000283019F487E291E009C0293019F480934A
:1075C000270106C02A3021F48DE191E021E003C0BB
:1075D0008DE191E020E0909323018093220105C08A
:1075E0009E8180E880930C0107C08F81882319F465
:1075F0009E81921708F0922F9093020168C08091AB
:107600000C0187FF64C080910F01092F891708F4CE
:10761000082F801B80930F01FF24882311F4FF247F
:10762000F39410E04DC080911101E0910D01F091B3
:107630000E01873058F03196F0930E01E0930D0162
:1076400031976991CF01F4D01F5F3AC080E7E030F5
:10765000F80708F03AC01E5FF8948991999121E0EB
:107660000C0120935700E89511247894CF010296DD
:1076700090930E0180930D018F779070892B41F0CC
:10768000FF20F1F01017E0F0809110018823C1F085
:10769000F89483E080935700E895789407B600FC4F
:1076A000FDCFF89485E080935700E895789407B66D
:1076B00000FCFDCFF89481E180935700E895789421
:1076C000101708F4B0CFFF2011F0109202011092B1
:1076D00024018091000184FF71C0809102018F3FDD
:1076E00009F46CC0182F893008F018E0811B8093D2
:1076F00002018091140198E88927809314011123D5
:1077000009F44AC080910C0187FF2AC080910F01C3
:10771000811708F4182F811B80930F01009111012C
:10772000C5E1D1E015C0E0910D01F0910E010730E7
:1077300018F0CF0175D001C0849188832196809183
:107740000D0190910E01019690930E0180930D0111
:10775000812F90E08B5E9E4FC817D90721F71AC082
:10776000E0912201F091230186FF09C0912FA5E14C
:10777000B1E084918D9331969150D9F707C0912F44
:10778000A5E1B1E081918D939150E1F7F093230150
:10779000E0932201193060F485E191E0612FCDDCA6
:1077A000612F6C5F6C3041F08FEF8093020104C059
:1077B0008FEF809302016EE16093000194E189B143
:1077C000847831F49150D9F71092250110921F015D
:1077D00080910101803130F04E9B0FC080910101FA
:1077E000805109C04E9909C080910101823028F072
:1077F00080910101825080930101809101018823D1
:1078000009F031CEF894579A1BB81DBA109269004E
:1078100081E085BF15BEE0911201F0911301099539
:10782000F999FECF92BD81BDF89A992780B5089548
:10783000262FF999FECF1FBA92BD81BD20BD0FB68C
:10784000F894FA9AF99A0FBE01960895F894FFCF2A
:087850005AFEFF1E950F000017
:040000030000700089
:00000001FF
